S00E000042434D5F54582E7372656339
S11300000C942A000C9447000C9447000C9447006D
S11300100C9447000C9447000C9447000C94470040
S11300200C9447000C9447000C9400020C94470075
S11300300C949D030C9488040C9447000C94B10414
S11300400C9447000C9447000C9447000C94470010
S11300500C94470011241FBECFE5D8E0DEBFCDBF0E
S113006010E0A0E6B0E0E8EBF9E002C005900D92E4
S1130070AA38B107D9F720E0AAE8B0E001C01D9280
S1130080A73BB207E1F70E94AF030C94DA040C9487
S1130090000081E08093620082E080938C000895E8
S11300A080916000811138C010928A008AE890E043
S11300B00E945C0480918D0090918E00A0918F002D
S11300C0B091900020918A00E1EBF0E043815481EB
S11300D0DA01A80FB91F2C930380F481E02D8081ED
S11300E0833021F088EF80936000089580918D0023
S11300F090918E00A0918F00B09190000196A11D67
S1130100B11D80938D0090938E00A0938F00B093C7
S1130110900082E080938B000895813019F0823042
S113012099F13AC08BE690E00E94D303809361007A
S1130130811134C089E490E00E94740480E590E069
S11301400E947E0410929A001092990010928C00E2
S113015010928B00109295001092960010929700C6
S113016010929800109291001092920010929300B5
S11301701092940010928D0010928E0010928F00B5
S11301801092900080E0089584E690E00E94D302EB
S11301908093610080E008958EEF089589EF0895BB
S11301A09C019091610091111BC080918C00811180
S11301B019C061157105C1F080919A00811116C0B2
S11301C0EBEAF0E083E080833283218374836383EA
S11301D0158281E080938C0080939A0080E00895DA
S11301E08FEF08958FEF08958BEF08958CEF0895A6
S11301F080918C00813051F008F4EFC0823009F412
S1130200B7C0833009F4D2C08AEF08958091950075
S113021090919600A0919700B0919800813091053B
S1130220A105B10541F138F082309105A105B10570
S113023009F441C060C080916200813009F0CFC0F0
S11302408091AB000E944C04109262008091950052
S113025090919600A0919700B09198000196A11DED
S1130260B11D8093950090939600A0939700B0934E
S1130270980080E0089580916200813009F0B1C057
S11302808091AD000E944C04109262008091950010
S113029090919600A0919700B09198000196A11DAD
S11302A0B11D8093950090939600A0939700B0930E
S11302B0980080E0089580916200813009F093C035
S11302C08091AC000E944C041092620080919500D1
S11302D090919600A0919700B09198000196A11D6D
S11302E0B11D8093950090939600A0939700B093CE
S11302F0980080E008954091AC005091AD004D5FAE
S11303005F4F60E070E084179507A607B70758F5BC
S113031020916200213009F068C0EBEAF0E0039715
S113032023813481D901A80FB91F35812C91230F62
S113033025838C910E944C04109262008091950058
S113034090919600A0919700B09198000196A11DFC
S1130350B11D8093950090939600A0939700B0935D
S1130360980080E0089582E080938C0080E00895F6
S11303708091AC009091AD000396A0E0B0E0409174
S113038095005091960060919700709198008417A1
S11303909507A607B70729F483E080938C0080E0D3
S11303A0089581E080938C0080E00895809162003C
S11303B08130E9F48091B0000E944C0410926200F4
S11303C010928C0010929A00E0919B00F0919C0096
S11303D0309779F0099580E0089580E0089580E0F1
S11303E0089580E0089580E0089580E0089580E015
S11303F008958BEF089590939C0080939B0008953B
S11304001F920F920FB60F9211242F938F939F93E5
S1130410EF93FF93CF93DF931F92CDB7DEB719828B
S1130420898189812091A500821788F4E981F0E00F
S1130430EE0FFF1FE356FF4F808191810196918358
S1130440808389818F5F89838981821778F30F90F4
S1130450DF91CF91FF91EF919F918F912F910F9009
S11304600FBE0F901F9018958FB780688FBF0895A7
S1130470883008F5613071F44AB321E030E0B90105
S113048002C0660F771F8A95E2F7CB01842B8ABBE3
S113049080E0089561117DC04AB321E030E0B901E4
S11304A002C0660F771F8A95E2F7CB0180958423FB
S11304B08ABB80E0089598EF980F983008F5613072
S11304C071F447B321E030E0B90102C0660F771F31
S11304D09A95E2F7CB01842B87BB80E008956111E4
S11304E05AC047B321E030E0B90102C0660F771F5C
S11304F09A95E2F7CB018095842387BB80E0089529
S113050090EF980F983008F5613071F444B321E00E
S113051030E0B90102C0660F771F9A95E2F7CB016C
S1130520842B84BB80E00895611137C044B321E07B
S113053030E0B90102C0660F771F9A95E2F7CB014C
S11305408095842384BB80E008958851883038F5F1
S1130550613071F441B321E030E0B90102C0660FAB
S1130560771F8A95E2F7CB01842B81BB80E0089545
S1130570611117C041B321E030E0B90102C0660F38
S1130580771F8A95E2F7CB018095842381BB80E0B5
S1130590089581E0089581E0089581E0089581E05F
S11305A0089581E00895CF93DF93EC018881813031
S11305B009F078C06C9A61E08CE00E94380261E036
S11305C08DE00E94380260E08EE00E94380261E013
S11305D08FE00E943802898181111AC070988A8143
S11305E0813051F028F0823059F0833069F026C010
S11305F06898699880E027C0689A699880E023C069
S11306006898699A80E01FC0689A699A80E01BC064
S11306108130B1F4709A8A81813041F018F08230CF
S113062049F010C06898699880E00DC0689A69988C
S113063080E009C06898699A80E005C08EEF03C025
S11306408FEF01C08EEF9B81913041F46F9A9FB779
S113065090689FBF91E09093A60006C0911103C0DB
S11306601092A60001C08CEF9D81911102C06D987B
S113067005C0913011F46D9A01C08BEF9E819111E8
S113068002C06B9805C0913011F46B9A01C08AEFD7
S11306909C81911102C06A984CC0913009F044C009
S11306A06A9A47C0811142C06C9860E08CE00E9455
S11306B0380260E08DE00E94380261E08EE00E9422
S11306C0380260E08FE00E9438028B81813049F467
S11306D06F9A8FB780688FBF81E08093A60080E017
S11306E006C0811103C01092A60001C08CEF9D8149
S11306F0911102C06D9805C0913011F46D9A01C03A
S11307008BEF9E81911102C06B9805C0913011F45A
S11307106B9A01C08AEF9C81911102C06A9809C04A
S1130720913031F46A9A05C089EF03C08DEF01C09E
S113073089EF6E9ADF91CF9108951F920F920FB6B1
S11307400F9211248F9381E0809363008F910F9017
S11307500FBE0F901F9018958FEF8BBB0895CF930A
S1130760DF93CDB7DEB765970FB6F894DEBF0FBE43
S1130770CDBF85E1E4E7F0E0DE01119601900D9232
S11307808A95E1F781E00E948D00BE016F5F7F4F83
S113079085E190E00E94D0008CEA93E00E94FB0186
S11307A00E94F800FDCFCF93DF93009709F470C047
S11307B0EC018881813049F40E943402579A569A98
S11307C081E08093730080E009C0811106C05798CE
S11307D0569855981092730001C084E090B59068C3
S11307E090BD998191110BC090B59F7B90BD2A81DA
S11307F03B812333310549F493E399B909C091301E
S113080031F490B5906490BD03C082E001C081E0F2
S11308109D81911107C090B59F7D90BD90B59F7E3D
S113082090BD01C086E09E81911104C090B5977F70
S113083090BD07C0913021F490B5986090BD01C07F
S113084087E09C81911104C090B590BD52981DC061
S1130850923029F490B5926090BD529816C09430AD
S113086029F490B5946090BD52980FC0963029F445
S113087090B5966090BD529808C0973029F490B511
S1130880966090BD529A01C083E0549A539A01C075
S113089085E0DF91CF91089590917300911105C087
S11308A05D9BFECF8CB980E00895913019F48CB92A
S11308B080E0089584E00895009791F020917300FA
S11308C0211107C05F9BFECF2CB1FC01208380E087
S11308D00895213039F42CB1FC01208380E008957F
S11308E085E0089584E00895009731F09093AA007C
S11308F08093A90080E0089585E00895009731F081
S11309009093A8008093A70080E0089585E008955F
S11309101F920F920FB60F9211242F933F934F9370
S11309205F936F937F938F939F93AF93BF93EF9353
S1130930FF93E091A700F091A800309709F0099582
S1130940FF91EF91BF91AF919F918F917F916F91A3
S11309505F914F913F912F910F900FBE0F901F9079
S113096018951F920F920FB60F9211242F933F9355
S11309704F935F936F937F938F939F93AF93BF93A3
S1130980EF93FF93E091A900F091AA00309709F04A
S11309900995FF91EF91BF91AF919F918F917F91B5
S11309A06F915F914F913F912F910F900FBE0F90D8
S10B09B01F901895F894FFCF85
S11309B8F8FF0101010000000000000100330006F7
S11309C8000000FF546573742042434D206D6F642A
S10D09D8756C6520416C616100003C
S9030000FC
