S00E00005653455F54582E737265631D
S11300000C942A000C9447000C9447000C9447006D
S11300100C9447000C9447000C9447000C94470040
S11300200C9447000C9447000C9417010C94F200B4
S11300300C9464030C9447040C9447000C947004CF
S11300400C9447000C9447000C9447000C94470010
S11300500C94470011241FBECFE5D8E0DEBFCDBF0E
S113006010E0A0E6B0E0EAECFBE002C005900D92DF
S1130070A437B107D9F720E0A4E7B0E001C01D928E
S1130080AD38B207E1F70E949A030C94E3050C948F
S11300900000CF92DF92EF92FF9280916000823055
S11300A099F18330B9F1813009F08BC09C9B1CC05D
S11300B08FE39CE90197F1F700C000009C9B11C0FD
S11300C061E088E00E94EA019FEF20E782E091501E
S11300D020408040E1F700C0000060E088E00E941A
S11300E0EA019C99FECF6DC0B29B6BC08FE39CE983
S11300F00197F1F700C00000B29B03C083E0809336
S11301006000B299FECF5DC00E94990481E08093A3
S1130110600057C022B78091740090917500A0913F
S11301207600B0917700BA2FA92F982F8827BC01A9
S1130130CD01620F711D811D911D0E94E8042DEBFC
S113014037E346E059E30E944E05609378007093CC
S1130150790080937A0090937B00C0907800D090CF
S11301607900E0907A00F0907B0060917C0070E070
S113017080E090E00E94E804A70196010E944E05E9
S1130180609378007093790080937A0090937B0059
S1130190609178007091790080917A0090917B0051
S11301A00E94B904862F0E942D0412BE109274007E
S11301B010927500109276001092770081E080937F
S11301C06000FF90EF90DF90CF9008958CE790E06F
S11301D00E944F0382E080936000089581E0809341
S11301E0610008951F920F920FB60F9211248F93FE
S11301F09F93AF93BF938091740090917500A091E9
S11302007600B09177000196A11DB11D8093740012
S113021090937500A0937600B0937700BF91AF914F
S11302209F918F910F900FBE0F901F9018951F9262
S11302300F920FB60F9211242F938F939F93EF93E6
S1130240FF93CF93DF931F92CDB7DEB719828981D5
S1130250898120918500821788F4E981F0E0EE0F0E
S1130260FF1FE358FF4F8081918101969183808322
S113027089818F5F89838981821778F30F90DF9159
S1130280CF91FF91EF919F918F912F910F900FBE7E
S11302900F901F9018958FB780688FBF089588308E
S11302A008F5613071F44AB321E030E0B90102C0CD
S11302B0660F771F8A95E2F7CB01842B8ABB80E017
S11302C0089561117DC04AB321E030E0B90102C054
S11302D0660F771F8A95E2F7CB01809584238ABB4A
S11302E080E0089598EF980F983008F5613071F424
S11302F047B321E030E0B90102C0660F771F9A9539
S1130300E2F7CB01842B87BB80E0089561115AC0CA
S113031047B321E030E0B90102C0660F771F9A9518
S1130320E2F7CB018095842387BB80E0089590EFAA
S1130330980F983008F5613071F444B321E030E04F
S1130340B90102C0660F771F9A95E2F7CB01842B9F
S113035084BB80E00895611137C044B321E030E0EC
S1130360B90102C0660F771F9A95E2F7CB01809519
S1130370842384BB80E008958851883038F5613047
S113038071F441B321E030E0B90102C0660F771F78
S11303908A95E2F7CB01842B81BB80E0089561113B
S11303A017C041B321E030E0B90102C0660F771FE6
S11303B08A95E2F7CB018095842381BB80E0089580
S11303C081E0089581E0089581E0089581E0089531
S11303D081E00895883008F5613071F44BB321E071
S11303E030E0B90102C0660F771F8A95E2F7CB01AE
S11303F0842B8BBB80E0089561117DC04BB321E059
S113040030E0B90102C0660F771F8A95E2F7CB018D
S1130410809584238BBB80E0089598EF980F9830E3
S113042008F5613071F448B321E030E0B90102C04D
S1130430660F771F9A95E2F7CB01842B88BB80E087
S1130440089561115AC048B321E030E0B90102C0F7
S1130450660F771F9A95E2F7CB018095842388BBBA
S113046080E0089590EF980F983008F5613071F4AA
S113047045B321E030E0B90102C0660F771F9A95B9
S1130480E2F7CB01842B85BB80E00895611137C06E
S113049045B321E030E0B90102C0660F771F9A9599
S11304A0E2F7CB018095842385BB80E008958851D1
S11304B0883038F5613071F442B321E030E0B9019D
S11304C002C0660F771F8A95E2F7CB01842B82BBAB
S11304D080E00895611117C042B321E030E0B90112
S11304E002C0660F771F8A95E2F7CB0180958423BB
S11304F082BB80E0089581E0089581E0089581E061
S1130500089581E0089581E00895CF93DF93EC018D
S11305108881813009F078C06C9A61E08CE00E9497
S11305204F0161E08DE00E944F0160E08EE00E9487
S11305304F0161E08FE00E944F01898181111AC04F
S113054070988A81813051F028F0823059F08330DC
S113055069F026C06898699880E027C0689A69980D
S113056080E023C06898699A80E01FC0689A699AFD
S113057080E01BC08130B1F4709A8A81813041F0EF
S113058018F0823049F010C06898699880E00DC076
S1130590689A699880E009C06898699A80E005C003
S11305A08EEF03C08FEF01C08EEF9B81913041F439
S11305B06F9A9FB790689FBF91E09093880006C0A0
S11305C0911103C01092880001C08CEF9D8191119C
S11305D002C06D9805C0913011F46D9A01C08BEF83
S11305E09E81911102C06B9805C0913011F46B9AF1
S11305F001C08AEF9C81911102C06A984CC091306D
S113060009F044C06A9A47C0811142C06C9860E006
S11306108CE00E944F0160E08DE00E944F0161E098
S11306208EE00E944F0160E08FE00E944F018B81B9
S1130630813049F46F9A8FB780688FBF81E08093CF
S1130640880080E006C0811103C01092880001C0B8
S11306508CEF9D81911102C06D9805C0913011F409
S11306606D9A01C08BEF9E81911102C06B9805C0F9
S1130670913011F46B9A01C08AEF9C81911102C0F0
S11306806A9809C0913031F46A9A05C089EF03C0B1
S11306908DEF01C089EF6E9ADF91CF910895FC012F
S11306A090918800913031F4109262008FB1808370
S11306B080E00895911106C0779BFECF8FB18083AF
S11306C080E008958CEF08951F920F920FB60F9259
S11306D011242F933F934F935F936F937F938F9343
S11306E09F93AF93BF93EF93FF9381E08093620056
S11306F0E0918600F0918700309709F00995FF9109
S1130700EF91BF91AF919F918F917F916F915F9185
S11307104F913F912F910F900FBE0F901F901895FE
S1130720009731F0909387008093860080E00895CD
S11307308BEF089583E690E00E9485028AE690E0BC
S11307400E94B50386EE90E00E9490038EEE90E046
S11307500E943D0460E084E10E944F0161E088E072
S11307600E944F010E944900FDCFCF93DF93009771
S113077009F46FC0EC018881813049F40E944B0177
S1130780579A569A81E08093720080E009C08111E3
S113079006C05798569855981092720001C084E08C
S11307A090B5906890BD998191110BC090B59F7BD5
S11307B090BD2A813B812333310549F493E399B9F0
S11307C009C0913031F490B5906490BD03C082E0CB
S11307D001C081E09D81911107C090B59F7D90BDBE
S11307E090B59F7E90BD01C086E09E81911104C0AA
S11307F090B5977F90BD07C0913021F490B5986073
S113080090BD01C087E09C81911104C090B590BD5A
S113081052981CC0923029F490B5926090BD5298C1
S113082015C0943029F490B5946090BD52980EC0D0
S1130830963021F490B5966890BD08C0973029F49D
S113084090B5966090BD529A01C083E0549A539A31
S113085001C085E0DF91CF910895909172009111CC
S113086005C05D9BFECF8CB980E00895913019F4EA
S11308708CB980E0089584E00895009731F0909356
S11308808C0080938B0080E0089585E008951F928A
S11308900F920FB60F9211242F933F934F935F93B0
S11308A06F937F938F939F93AF93BF93EF93FF9334
S11308B0E0918900F0918A00309709F00995FF9141
S11308C0EF91BF91AF919F918F917F916F915F91C4
S11308D04F913F912F910F900FBE0F901F9018953D
S11308E01F920F920FB60F9211242F933F934F93A1
S11308F05F936F937F938F939F93AF93BF93EF9384
S1130900FF93E0918B00F0918C00309709F00995EA
S1130910FF91EF91BF91AF919F918F917F916F91D3
S11309205F914F913F912F910F900FBE0F901F90A9
S1130930189583B78F7783BF83B78F7B83BF83B7C4
S1130940877F83BF83B78F7D83BF83B78F7E83BF4A
S113095083B7846083BF83B78D7F83BF83B7816090
S113096083BF12BE89B7816089BF8AB780688ABF96
S113097008950E942D0588F09F5798F0B92F992764
S1130980B751B0F0E1F0660F771F881F991F1AF076
S1130990BA95C9F714C0B13091F00E944705B1E08F
S11309A008950C944705672F782F8827B85F39F08E
S11309B0B93FCCF3869577956795B395D9F73EF40F
S11309C090958095709561957F4F8F4F9F4F0895B7
S11309D0E89409C097FB3EF49095809570956195D5
S11309E07F4F8F4F9F4F9923A9F0F92F96E9BB278B
S11309F09395F695879577956795B795F111F8CF07
S1130A00FAF4BB0F11F460FF1BC06F5F7F4F8F4F71
S1130A109F4F16C0882311F096E911C0772321F067
S1130A209EE8872F762F05C0662371F096E8862FFF
S1130A3070E060E02AF09A95660F771F881FDAF756
S1130A40880F9695879597F9089557FD9058440F08
S1130A50551F59F05F3F71F04795880F97FB991F19
S1130A6061F09F3F79F087950895121613061406D6
S1130A70551FF2CF4695F1DF08C016161706180663
S1130A80991FF1CF86957105610508940895E8943E
S1130A90BB2766277727CB0197F908950E94610544
S1130AA00C94D2050E94C40538F00E94CB0520F0B6
S1130AB0952311F00C94BB050C94C10511240C94DE
S1130AC048050E94250570F3959FC1F3950F50E0EA
S1130AD0551F629FF001729FBB27F00DB11D639FEC
S1130AE0AA27F00DB11DAA1F649F6627B00DA11D92
S1130AF0661F829F2227B00DA11D621F739FB00D38
S1130B00A11D621F839FA00D611D221F749F3327A7
S1130B10A00D611D231F849F600D211D822F762F40
S1130B206A2F11249F5750409AF0F1F088234AF01D
S1130B30EE0FFF1FBB1F661F771F881F9150504089
S1130B40A9F79E3F510580F00C94BB050C94480511
S1130B505F3FE4F3983ED4F3869577956795B79510
S1130B60F795E7959F5FC1F7FE2B880F911D96952A
S1130B70879597F9089597F99F6780E870E060E09A
S1130B8008959FEF80EC089500240A941616170622
S1130B9018060906089500240A941216130614066A
S1130BA005060895092E0394000C11F4882352F0CD
S1130BB0BB0F40F4BF2B11F460FF04C06F5F7F4F85
S10D0BC08F4F9F4F0895F894FFCF64
S1130BCA01010100000001000000010033000600D9
S1070BDA0000FF0014
S9030000FC
