:100000000C942A000C9447000C9447000C94470071
:100010000C9447000C9447000C9447000C94470044
:100020000C9447000C9447000C94CA010C944700B0
:100030000C9467030C943F040C9447000C946804E0
:100040000C9447000C9447000C9447000C94470014
:100050000C94470011241FBECFE5D8E0DEBFCDBF12
:1000600010E0A0E6B0E0E6E2F9E002C005900D92F3
:10007000A437B107D9F720E0A4E7B0E001C01D9292
:10008000A13AB207E1F70E9479030C9491040C9411
:10009000000081E08093620082E080937600089502
:1000A00080916000811138C01092740084E790E064
:1000B0000E9413048091770090917800A0917900BC
:1000C000B0917A0020917400EBE9F0E04381548113
:1000D000DA01A80FB91F2C930380F481E02D8081F1
:1000E000833021F088EF809360000895809177003D
:1000F00090917800A0917900B0917A000196A11DAD
:10010000B11D8093770090937800A0937900B0930D
:100110007A0082E0809375000895813019F0823072
:1001200099F13AC08BE690E00E949A0380936100B7
:10013000811134C089E490E00E942B0480E590E0B6
:100140000E94350410928400109283001092760071
:100150001092750010927F00109280001092810022
:100160001092820010927B0010927C0010927D0011
:1001700010927E0010927700109278001092790011
:1001800010927A0080E0089584E690E00E949D023B
:100190008093610080E008958EEF089589EF0895BF
:1001A0009C0190916100911116C080918300811192
:1001B00014C06115710599F0EBE9F0E083E08083EC
:1001C00032832183748363831582109275001092A9
:1001D000600080E008958FEF08958CEF08958BEF15
:1001E0000895CF93DF9380917500823039F008F441
:1001F000C6C0833009F4B5C08AEFC4C080917B00CB
:1002000090917C00A0917D00B0917E000097A105A7
:10021000B105E1F4E0919E00F0919F008081833070
:1002200081F481E090E0A0E0B0E080937B009093C7
:100230007C00A0937D00B0937E008093750080E0E9
:10024000A1C088EF8093600080E09CC08130910560
:10025000A105B10511F5EBE9F0E0A381B481119698
:100260002C9130E0828190E02817390789F482E0F0
:1002700090E0A0E0B0E080937B0090937C00A0939E
:100280007D00B0937E0081E08093750080E07AC0AD
:1002900088EF8093600080E075C082309105A105F1
:1002A000B10519F5EBE9F0E0A381B48112962C9128
:1002B00030E08181928199272817390789F483E0FA
:1002C00090E0A0E0B0E080937B0090937C00A0934E
:1002D0007D00B0937E0081E08093750080E052C085
:1002E00088EF8093600080E04DC040919C00509169
:1002F0009D004D5F5F4F60E070E084179507A60793
:10030000B707D0F4EBE9F0E0C381D481C80FD91F5F
:1003100038812581230F25830196A11DB11D80936E
:100320007B0090937C00A0937D00B0937E0081E0E1
:100330008093750080E026C0EBE9F0E023813481F2
:10034000D901A80FB91F25818C91281305C083E01E
:100350008093750080E016C088EF8093600080E095
:1003600011C081E08093830010927500E0918500B8
:10037000F0918600309729F0099580E003C080E075
:1003800001C08BEFDF91CF91089590938600809309
:10039000850008951F920F920FB60F9211242F938C
:1003A0008F939F93EF93FF93CF93DF931F92CDB7DC
:1003B000DEB719828981898120918F00821788F4A4
:1003C000E981F0E0EE0FFF1FE957FF4F8081918137
:1003D00001969183808389818F5F898389818217C8
:1003E00078F30F90DF91CF91FF91EF919F918F91D3
:1003F0002F910F900FBE0F901F9018958FB78068A8
:100400008FBF0895883008F5613071F44AB321E058
:1004100030E0B90102C0660F771F8A95E2F7CB0181
:10042000842B8ABB80E0089561117DC04AB321E02E
:1004300030E0B90102C0660F771F8A95E2F7CB0161
:10044000809584238ABB80E0089598EF980F9830B8
:1004500008F5613071F447B321E030E0B90102C022
:10046000660F771F9A95E2F7CB01842B87BB80E05C
:10047000089561115AC047B321E030E0B90102C0CC
:10048000660F771F9A95E2F7CB018095842387BB8F
:1004900080E0089590EF980F983008F5613071F47E
:1004A00044B321E030E0B90102C0660F771F9A958E
:1004B000E2F7CB01842B84BB80E00895611137C043
:1004C00044B321E030E0B90102C0660F771F9A956E
:1004D000E2F7CB018095842384BB80E008958851A6
:1004E000883038F5613071F441B321E030E0B90172
:1004F00002C0660F771F8A95E2F7CB01842B81BB80
:1005000080E00895611117C041B321E030E0B901E6
:1005100002C0660F771F8A95E2F7CB01809584238E
:1005200081BB80E0089581E0089581E0089581E035
:10053000089581E0089581E00895CF93DF93EC0161
:100540008881813009F078C06C9A61E08CE00E946B
:10055000020261E08DE00E94020260E08EE00E94F3
:10056000020261E08FE00E940202898181111AC0BB
:1005700070988A81813051F028F0823059F08330B0
:1005800069F026C06898699880E027C0689A6998E1
:1005900080E023C06898699A80E01FC0689A699AD1
:1005A00080E01BC08130B1F4709A8A81813041F0C3
:1005B00018F0823049F010C06898699880E00DC04A
:1005C000689A699880E009C06898699A80E005C0D7
:1005D0008EEF03C08FEF01C08EEF9B81913041F40D
:1005E0006F9A9FB790689FBF91E09093900006C06C
:1005F000911103C01092900001C08CEF9D81911168
:1006000002C06D9805C0913011F46D9A01C08BEF56
:100610009E81911102C06B9805C0913011F46B9AC4
:1006200001C08AEF9C81911102C06A984CC0913040
:1006300009F044C06A9A47C0811142C06C9860E0DA
:100640008CE00E94020260E08DE00E94020261E004
:100650008EE00E94020260E08FE00E9402028B8125
:10066000813049F46F9A8FB780688FBF81E08093A3
:10067000900080E006C0811103C01092900001C07C
:100680008CEF9D81911102C06D9805C0913011F4DD
:100690006D9A01C08BEF9E81911102C06B9805C0CD
:1006A000913011F46B9A01C08AEF9C81911102C0C4
:1006B0006A9809C0913031F46A9A05C089EF03C085
:1006C0008DEF01C089EF6E9ADF91CF9108951F924F
:1006D0000F920FB60F9211248F9381E080936300E5
:1006E0008F910F900FBE0F901F9018958FEF8BBBBF
:1006F0000895CF93DF93CDB7DEB765970FB6F89423
:10070000DEBF0FBECDBF8E010F5F1F4F85E1F80129
:1007100011928A95E9F781E00E948D00B80185E188
:1007200090E00E94D00086E793E00E94C5010E94FD
:10073000F100FDCFCF93DF93009709F470C0EC0177
:100740008881813049F40E94FE01579A569A81E0CF
:100750008093730080E009C0811106C057985698B5
:1007600055981092730001C084E090B5906890BDD8
:10077000998191110BC090B59F7B90BD2A813B81DF
:100780002333310549F493E399B909C0913031F429
:1007900090B5906490BD03C082E001C081E09D816E
:1007A000911107C090B59F7D90BD90B59F7E90BD83
:1007B00001C086E09E81911104C090B5977F90BDE5
:1007C00007C0913021F490B5986090BD01C087E0DA
:1007D0009C81911104C090B590BD52981DC092307B
:1007E00029F490B5926090BD529816C0943029F4C7
:1007F00090B5946090BD52980FC0963029F490B592
:10080000966090BD529808C0973029F490B59660D4
:1008100090BD529A01C083E0549A539A01C085E07A
:10082000DF91CF910895009791F0209173002111ED
:1008300007C05F9BFECF2CB1FC01208380E00895B0
:10084000213039F42CB1FC01208380E0089585E04B
:10085000089584E00895009731F090939400809378
:10086000930080E0089585E00895009731F090931B
:1008700092008093910080E0089585E008951F9292
:100880000F920FB60F9211242F933F934F935F93C4
:100890006F937F938F939F93AF93BF93EF93FF9348
:1008A000E0919100F0919200309709F00995FF9145
:1008B000EF91BF91AF919F918F917F916F915F91D8
:1008C0004F913F912F910F900FBE0F901F90189551
:1008D0001F920F920FB60F9211242F933F934F93B5
:1008E0005F936F937F938F939F93AF93BF93EF9398
:1008F000FF93E0919300F0919400309709F00995EF
:10090000FF91EF91BF91AF919F918F917F916F91E7
:100910005F914F913F912F910F900FBE0F901F90BD
:060920001895F894FFCFCA
:10092600F8FF01010100000000000001003300068D
:04093600000000FFBE
:00000001FF
