:100000000C942A000C9447000C9447000C94470071
:100010000C9447000C9447000C9447000C94470044
:100020000C9447000C9447000C94C8000C944700B3
:100030000C94B5020C948F030C9447000C94B803F5
:100040000C9447000C9447000C9447000C94470014
:100050000C94470011241FBECFE5D8E0DEBFCDBF12
:1000600010E0A0E6B0E0E6ECF7E002C005900D92EB
:10007000A237B107D9F720E0A2E7B0E001C01D9296
:10008000A438B207E1F70E94C4020C94E1030C9477
:10009000000080917400813021F0823009F444C066
:1000A0000895B09B0EC08FE39CE90197F1F700C063
:1000B0000000B09B03C082E080937400B099FECF33
:1000C00008959C9B18C08FE39CE90197F1F700C04D
:1000D00000009C9B0DC0809172008F3F31F0809199
:1000E00072008F5F8093720003C08FEF8093720065
:1000F0009C99FECF0895B29B20C08FE39CE90197A5
:10010000F1F700C00000B29B0CC080917200882300
:1001100031F08091720081508093720002C0109281
:100120007200B299FECF0895809172000E94A302DE
:100130001092730081E080937400089581E08093B1
:100140006000089585E790E00E94630385B3809581
:1001500085BB809175008D3059F4809173008BBB05
:10016000809173008093720082E080937400089500
:10017000882369F090917300990F292F220F220F85
:10018000920F8053890F8093730010927500089529
:100190001F920F920FB60F9211242F938F939F935C
:1001A000EF93FF93CF93DF931F92CDB7DEB7198202
:1001B0008981898120917E00821788F4E981F0E0AD
:1001C000EE0FFF1FEA58FF4F8081918101969183C6
:1001D000808389818F5F89838981821778F30F906B
:1001E000DF91CF91FF91EF919F918F912F910F9080
:1001F0000FBE0F901F9018958FB780688FBF08951E
:10020000883008F5613071F44AB321E030E0B9017B
:1002100002C0660F771F8A95E2F7CB01842B8ABB59
:1002200080E0089561117DC04AB321E030E0B9015A
:1002300002C0660F771F8A95E2F7CB018095842371
:100240008ABB80E0089598EF980F983008F56130E8
:1002500071F447B321E030E0B90102C0660F771FA7
:100260009A95E2F7CB01842B87BB80E0089561115A
:100270005AC047B321E030E0B90102C0660F771FD2
:100280009A95E2F7CB018095842387BB80E008959F
:1002900090EF980F983008F5613071F444B321E085
:1002A00030E0B90102C0660F771F9A95E2F7CB01E3
:1002B000842B84BB80E00895611137C044B321E0F2
:1002C00030E0B90102C0660F771F9A95E2F7CB01C3
:1002D0008095842384BB80E008958851883038F568
:1002E000613071F441B321E030E0B90102C0660F22
:1002F000771F8A95E2F7CB01842B81BB80E00895BC
:10030000611117C041B321E030E0B90102C0660FAE
:10031000771F8A95E2F7CB018095842381BB80E02B
:10032000089581E0089581E0089581E0089581E0D5
:10033000089581E0089581110BC06F3F21F48FEF84
:100340008ABB80E0089561112AC01ABA80E008953E
:10035000813059F46F3F21F48FEF87BB80E008951F
:1003600061111FC017BA80E00895823059F46F3FC1
:1003700021F48FEF84BB80E00895611114C014BA9A
:1003800080E00895833089F46F3F21F48FEF81BBC3
:1003900080E0089561110BC011BA80E0089581E0FA
:1003A000089581E0089581E0089581E0089581E055
:1003B0000895CF93DF93EC018881813009F078C0F4
:1003C0006C9A61E08CE00E94000161E08DE00E9487
:1003D000000160E08EE00E94000161E08FE00E9479
:1003E0000001898181111AC070988A81813051F091
:1003F00028F0823059F0833069F026C068986998F7
:1004000080E027C0689A699880E023C06898699A5C
:1004100080E01FC0689A699A80E01BC08130B1F407
:10042000709A8A81813041F018F0823049F010C012
:100430006898699880E00DC0689A699880E009C062
:100440006898699A80E005C08EEF03C08FEF01C005
:100450008EEF9B81913041F46F9A9FB790689FBF58
:1004600091E090937F0006C0911103C010927F002D
:1004700001C08CEF9D81911102C06D9805C0913033
:1004800011F46D9A01C08BEF9E81911102C06B989F
:1004900005C0913011F46B9A01C08AEF9C819111D3
:1004A00002C06A984CC0913009F044C06A9A47C0B3
:1004B000811142C06C9860E08CE00E94000160E015
:1004C0008DE00E94000161E08EE00E94000160E08A
:1004D0008FE00E9400018B81813049F46F9A8FB7C1
:1004E00080688FBF81E080937F0080E006C081112B
:1004F00003C010927F0001C08CEF9D81911102C05A
:100500006D9805C0913011F46D9A01C08BEF9E81FA
:10051000911102C06B9805C0913011F46B9A01C023
:100520008AEF9C81911102C06A9809C0913031F420
:100530006A9A05C089EF03C08DEF01C089EF6E9AFA
:10054000DF91CF91089590917F00913029F410921E
:1005500061008FB980E00895911105C08FB9779B34
:10056000FECF80E008958CEF08951F920F920FB692
:100570000F9211248F9381E0809361008F910F90EF
:100580000FBE0F901F9018956FEF80E00E949B01A7
:100590006FEF82E00E949B0160E084E10E94000115
:1005A00060E08AE00E94000160E088E00E940001B3
:1005B00089E690E00E94EB0282E690E00E94D90179
:1005C0008EE990E00E947B0382EA90E00E9485031E
:1005D0000E944900FDCFCF93DF93009709F46FC0CD
:1005E000EC018881813049F40E94FC00579A569AA8
:1005F00081E08093710080E009C0811106C05798A6
:10060000569855981092710001C084E090B590689A
:1006100090BD998191110BC090B59F7B90BD2A81AF
:100620003B812333310549F493E399B909C09130F3
:1006300031F490B5906490BD03C082E001C081E0C8
:100640009D81911107C090B59F7D90BD90B59F7E13
:1006500090BD01C086E09E81911104C090B5977F46
:1006600090BD07C0913021F490B5986090BD01C055
:1006700087E09C81911104C090B590BD52981CC038
:10068000923029F490B5926090BD529815C0943084
:1006900029F490B5946090BD52980EC0963021F424
:1006A00090B5966890BD08C0973029F490B59660D3
:1006B00090BD529A01C083E0549A539A01C085E0DC
:1006C000DF91CF910895009791F020917100211151
:1006D00007C05F9BFECF2CB1FC01208380E0089512
:1006E000213039F42CB1FC01208380E0089585E0AD
:1006F000089584E00895009731F0909383008093EB
:10070000820080E0089585E00895009731F090938D
:1007100081008093800080E0089585E008951F9215
:100720000F920FB60F9211242F933F934F935F9325
:100730006F937F938F939F93AF93BF93EF93FF93A9
:10074000E0918000F0918100309709F00995FF91C8
:10075000EF91BF91AF919F918F917F916F915F9139
:100760004F913F912F910F900FBE0F901F901895B2
:100770001F920F920FB60F9211242F933F934F9316
:100780005F936F937F938F939F93AF93BF93EF93F9
:10079000FF93E0918200F0918300309709F0099572
:1007A000FF91EF91BF91AF919F918F917F916F9149
:1007B0005F914F913F912F910F900FBE0F901F901F
:0607C0001895F894FFCF2C
:1007C60001010100000000000001003300060000E6
:0207D60000FF22
:00000001FF
